:1009DE00AB07AA06A905A80490F46CE0FCA3E0FD01
:1009EE00A3E0FEA3E0FF120740EF24FFFFEE34FF6B
:1009FE00FEED34FFFDEC34FFFC90F4701207D29044
:100A0E00FC02E04440F090FC12E04440F090FC62A6
:100A1E00E04480F090FC42E04480F053987F43988D
:100A2E0040439810E4FB7A01F9F890F470E0FCA3CF
:100A3E00E0FDA3E0FEA3E0FF1207408F9A90F47052
:0B0A4E00A3A3A3E0FF8F9BD2ACD2AFAC
:010A5900227A
:080003008F993099FDC299228A
:0B0AFF0090F468EBF0A3EAF0A3E9F02C
:100B0A00E4FDFC90F468E0FBA3E0FAA3E0F98D822F
:100B1A008C831206D7FF600A1200030DBD00010C78
:020B2A0080E168
:010B2C0022A6
:100B590090F498EEF0A3EFF05389FD43890153898E
:100B6900FB5389F790F498E0FCA3E0FDECF58CEDDC
:090B7900F58AD2A9D2AFD28C2278
:0A000E0042F490000042F49200005A
:03002300020AB816
:100AB800C0E0C0F0C083C082C0D075D000C000C004
:100AC80001C002C003C004C005C006C007309902B7
:100AD800C299309807C298AF99120003D007D00680
:100AE800D005D004D003D002D001D000D0D0D0821D
:070AF800D083D0F0D0E03202
:03000B0002088068
:10088000C0E0C083C082C0D075D000C002C003C029
:0708900004C005C006C0070B
:10089700208D030209C990F498E0FAA3E0FBEAF57A
:1008A7008CEBF58AC28D90F493E004F0700690F417
:1008B70092E004F0D390F493E0940A90F492E094D9
:1008C7000050030209C9E4F0A3F07C007D0090F416
:1008D70090E0FEA3E0FF0DED7A0070010C14FBEB36
:1008E700B5071BEAB5061790FC2D7401F090F4913B
:1008F700E004F0702C90F490E004F00209C90DEDCB
:10090700AA0470010C14B5071BEEB5021790FC2D55
:100917007402F090F491E004F0700690F490E00413
:10092700F00209C990F490E0FEA3E0FF0DEDAA04E0
:1009370070010C14FBEFB5031AEEB5021690FC2DEF
:100947007404F090F491E004F0700690F490E004E1
:10095700F0806F0DEDAA0470010C14B5071AEEB5FF
:10096700021690FC2D7408F090F491E004F07006E4
:1009770090F490E004F0804A90F490E0FEA3E0FF4A
:100987000DEDAA0470010C14FBEFB5031AEEB502C6
:100997001690FC2D7404F090F491E004F07023900D
:1009A700F490E004F0801B0DEDAA0414B5070CEEDB
:1009B700B5020890FC2D7402F0800090F490E4F0EA
:0209C700A3F09B
:1009C900D007D006D005D004D003D002D0D0D08231
:0509D900D083D0E032E4
:0300E3000200C652
:1000C600C0E0C083C082C2FF90FC2D740FF090F494
:0D00D60094E4F0A304F0D082D083D0E03297
:03000000020026D5
:10002600787FE4F6D8FD7581214386105386F790D4
:10003600FEA6E04408F090FF20E04480F002008134
:100A5A004B455931205570446F776E210D0A004B72
:100A6A00455932205570446F776E210D0A004B4567
:100A7A005933205570446F776E210D0A004B455942
:100A8A0034205570446F776E210D0A0076616C2010
:100A9A003D203078253034580D0A0041444320491E
:0E0AAA006E74657272757074696F6E21200033
:0A00180042F494000042F496000048
:0C0B2D00F07F0A120B39E054FEF07F0A42
:100B3900E4FDFCC3ED9FEC9E5015E4FBFA0BBB00F2
:0F0B4900010ABA01F8BB47F50DBD00010C80E4AD
:010B5800227A
:10044B0090F4647412F0A37434F0A37412F0A374D8
:10045B0034F090FF0DE04440F0440CF04420F09059
:10046B00FF16743EF090FF17E0540FF04480F090AD
:10047B00F46C1207DE01F400007F007EC27D017C6C
:10048B00001209DEE490FC2CF090FC1D740FF09030
:10049B00FC6C74F0F0E4FFFE120B5990FC2CE05452
:1004AB00FEF054FBF0E490FC66F0A3F090FF15E037
:1004BB004401F0C2FF90FF187401F090FC3CE04443
:1004CB007F647F700374FFF470597F32FE120B3917
:1004DB0090F46B74FFF0A3740AF0A3745AF07B01D1
:1004EB007AF4790012014B7B017AF47900120AFF3E
:1004FB0090FC2CE04401F07F0A7E00120B39E044A3
:10050B0004120B2DE054FBF07F0A120B3990FC3CCC
:10051B00E0447F647F700374FFF460F17F327E00F0
:10052B00120B3990FC3CE044BF64BF70547F32FE29
:10053B00120B3990F46B74FFF0A3740AF0A3746977
:10054B00F07B017AF4790012014B7B017AF479008C
:10055B00120AFF90FC2CE04404F07F0A7E00120B81
:10056B0039E04401F07F0A120B39E054FB120B2DDA
:10057B0090FC3CE044BF64BF60F67F327E00120B00
:10058B003990FC3CE044DF64DF70377F32FE120BA6
:10059B003990F46B74FFF0A3740AF0A37478F07BBA
:1005AB00017AF4790012014B7B017AF47900120A7B
:1005BB00FF90FC3CE044DF64DF60F67F327E00128C
:1005CB000B3990FC3CE044EF64EF70377F32FE1246
:1005DB000B3990F46B74FFF0A3740AF0A37487F0DB
:1005EB007B017AF4790012014B7B017AF4790012CA
:1005FB000AFF90FC3CE044EF64EF60F67F327E0034
:10060B00120B397F647E00120B3990FF187401F0C6
:10061B00120B3990FF1AE0C4131354037C005403DC
:10062B00FD90FF19E075F004A42DFFEC35F0FE9062
:10063B00F496F0A3EFF090F46B74FFF0A3740AF050
:10064B00A37496F0A3EEF0A3EFF07B017AF479009C
:10065B0012014B7B017AF47900120AFF90F494E0BB
:10066B007004A3E0640160030204C67BFF7A0A797D
:10067B00A5120AFF90FF1AE0C4131354037C005415
:10068B0003FD90FF19E075F004A42DFFEC35F0FE8F
:10069B0090F496F0A3EFF090F46B74FFF0A3740A50
:1006AB00F0A37496F0A3EEF0A3EFF07B017AF4794C
:1006BB000012014B7B017AF47900120AFFE490F4EB
:0C06CB0094F0A3F090FF1804F00204C6A5
:1000460002044BE493A3F8E493A34003F68001F281
:1000560008DFF48029E493A3F85407240CC8C333BB
:10006600C4540F4420C8834004F456800146F6DF8A
:10007600E4800B010204081020408090000EE47E0C
:10008600019360BCA3FF543F30E509541FFEE4937F
:10009600A360010ECF54C025E060A840B8E493A346
:1000A600FAE493A3F8E493A3C8C582C8CAC583CA71
:1000B600F0A3C8C582C8CAC583CADFE9DEE780BE29
:0100220000DD
:1006D700BB010CE58229F582E5833AF583E02250D8
:1006E70006E92582F8E622BBFE06E92582F8E22222
:0D06F700E58229F582E5833AF583E493223C
:1007040075F008758200EF2FFFEE33FECD33CDCCAC
:1007140033CCC58233C5829BED9AEC99E58298402F
:100724000CF582EE9BFEED9AFDEC99FC0FD5F0D60C
:10073400E4CEFBE4CDFAE4CCF9A88222B800C1B936
:100744000059BA002DEC8BF084CFCECDFCE5F0CB74
:10075400F97818EF2FFFEE33FEED33FDEC33FCEBAD
:1007640033FB10D703994004EB99FB0FD8E5E4F968
:10077400FA227818EF2FFFEE33FEED33FDEC33FC55
:10078400C933C910D7059BE99A4007EC9BFCE99A49
:10079400F90FD8E0E4C9FAE4CCFB2275F010EF2F8E
:1007A400FFEE33FEED33FDCC33CCC833C810D7078E
:1007B4009BEC9AE899400AED9BFDEC9AFCE899F8C9
:0E07C4000FD5F0DAE4CDFBE4CCFAE4C8F9225C
:0C07D200ECF0A3EDF0A3EEF0A3EFF0229A
:1007DE00A8828583F0D083D0821207F51207F51216
:1007EE0007F51207F5E473E493A3C583C5F0C5833B
:1007FE00C8C582C8F0A3C583C5F0C583C8C582C865
:01080E0022C7
:1000E600E508246BF582E434F4F583E005082290F4
:1000F600F46830070390F46BE475F00112083A02D5
:10010600080F2000E97F2ED2008018EF540F2490AC
:10011600D43440D4FF30040BEF24BFB41A0050038C
:100126002461FFE50960021509050CE50C7002055E
:100136000B30070E90F468E475F00112083AEF02EE
:100146000828020B827403D2078003E4C207F5086D
:1001560090F468120851E4F509F50BF50CE5096011
:10016600077F2012012980F5750AFFC201C200C26D
:1001760002C203C205C206C2081200F5FF700D30A6
:1001860007057F0012013AAF0CAE0B22B4255FC201
:10019600D5C2041200F5FF24D0B40A00501A75F037
:1001A6000A780930D50508B6FF0106C6A426F6204A
:1001B600D5047002D20380D924CFB41A00EF5004BC
:1001C600C2E5D20402033BD20180C6D20080C0D26F
:1001D6000280BCD2D580BAD20580B47F2012012914
:1001E6002002077401B5090040F11200E6FF120172
:1001F60029020163D208D20680951200E6FB12009E
:10020600E6FA1200E6F94A4B7006790C7A047BFF8F
:1002160020022EE509602A7E008E82758300120672
:10022600D760060EEE650A70F0C2D5EBC0E0EAC0F4
:10023600E0E9C0E0EE120382D0E0F9D0E0FAD0E0C7
:10024600FB12080FFF60AAEBC0E0EAC0E0E9C0E0DD
:10025600120129D0E02401F9D0E03400FAD0E0FB05
:10026600E50A0460DCD50AD980877BFF7A03797EAC
:10027600D202809C791080027908C206C2088008E2
:10028600D2D5790A8004790AC2D5E50A047002F546
:100296000AE4FAFDFEFF1200E6FC7B0820011312B9
:1002A60000E6FD7B1030000A1200E6FE1200E6FFB3
:1002B6007B20EC3382D592D55013C3E43000069FE1
:1002C600FFE49EFEE42001039DFDE49CFCE4CBF8E4
:1002D600C201EC700CCFCECDCCE824F8F870F380D8
:1002E60017C3EF33FFEE33FEED33FDEC33FCEB3398
:1002F600FB994002FB0FD8E9EB300105F8D0E0C4CA
:1003060048B201C0E00AEC4D4E4F78207B0070C227
:10031600EAB50A0040BCC0E0120384D0F0D0E02069
:100326000104C4C0E0C4B201C0F0120112D0F0D57D
:10033600F0EB02016312085A020053027A5801D107
:100346004C01CD42027E4F02864402864901E643B5
:08035600028C55027046027092
:10035E0045027047042C5001D52D01D92E01FC2BDE
:10036E0001DD2301FA2004152A019548000001F44D
:10037E003F3F3F00790AA2D5200314300509B9107A
:10038E00020404B9080104A2D5200602500104207B
:10039E0002689202B509005034C0E07F2030031984
:1003AE007F30A20272067205500F1203DBC202C228
:1003BE0006C205C2087F30800F300503E9C0E01287
:1003CE000129300503D0E0F9D0E0B509CC3005178E
:1003DE007F30B9100C1201297F583004077F7880C6
:1003EE0003B908031201293002057F2D0201297F6E
:1003FE00202008F87F2B2006F322920280CF286E51
:10040E00756C6C2900D2011200E63001F8C2017839
:10041E000930D50108F60201952D504349581200B6
:10042E00E62403B405004001E49004279312011A58
:0D043E00743A12011AD20375090402027A01
:10080F00BB010689828A83E0225002E722BBFE02E7
:09081F00E32289828A83E493221A
:10082800BB010689828A83F0225002F722BBFE01AF
:02083800F322A9
:10083A00F8E0FBA3A3E0F925F0F0E5821582700247
:07084A001583E0FA38F022EB
:09085100EBF0A3EAF0A3E9F022A8
:10085A00D083D082F8E4937012740193700DA3A32D
:10086A0093F8740193F5828883E473740293686041
:06087A00EFA3A3A380DF41
:100B8200EFB40A07740D120B8D740A309811A899EC
:100B9200B8130CC2983098FDA899C298B811F630D3
:070BA20099FDC299F59922AB
:00000001FF
